{
  "address": "0x1cf9380001676ef72B4023dac19F5742F19e9b21",
  "abi": [
    {
      "inputs": [
        {
          "internalType": "contract ISwapRouter",
          "name": "_swapRouter",
          "type": "address"
        },
        {
          "internalType": "contract IWETH9",
          "name": "_WETH9",
          "type": "address"
        },
        {
          "internalType": "address",
          "name": "poolAddress",
          "type": "address"
        }
      ],
      "stateMutability": "nonpayable",
      "type": "constructor"
    },
    {
      "inputs": [],
      "name": "Ref",
      "outputs": [
        {
          "internalType": "uint16",
          "name": "",
          "type": "uint16"
        }
      ],
      "stateMutability": "view",
      "type": "function"
    },
    {
      "inputs": [],
      "name": "WETH9",
      "outputs": [
        {
          "internalType": "contract IWETH9",
          "name": "",
          "type": "address"
        }
      ],
      "stateMutability": "view",
      "type": "function"
    },
    {
      "inputs": [],
      "name": "poolAAVE",
      "outputs": [
        {
          "internalType": "contract IPool",
          "name": "",
          "type": "address"
        }
      ],
      "stateMutability": "view",
      "type": "function"
    },
    {
      "inputs": [
        {
          "internalType": "address",
          "name": "tokenAddressIn",
          "type": "address"
        },
        {
          "internalType": "uint24",
          "name": "_fee",
          "type": "uint24"
        }
      ],
      "name": "supplyFromETH",
      "outputs": [
        {
          "internalType": "uint256",
          "name": "amountOut",
          "type": "uint256"
        }
      ],
      "stateMutability": "payable",
      "type": "function"
    },
    {
      "inputs": [
        {
          "internalType": "uint256",
          "name": "amountIn",
          "type": "uint256"
        },
        {
          "internalType": "address",
          "name": "tokenAddressOut",
          "type": "address"
        },
        {
          "internalType": "address",
          "name": "tokenAddressIn",
          "type": "address"
        },
        {
          "internalType": "uint24",
          "name": "_fee",
          "type": "uint24"
        }
      ],
      "name": "supplyFromToken",
      "outputs": [
        {
          "internalType": "uint256",
          "name": "amountOut",
          "type": "uint256"
        }
      ],
      "stateMutability": "nonpayable",
      "type": "function"
    },
    {
      "inputs": [],
      "name": "swapRouter",
      "outputs": [
        {
          "internalType": "contract ISwapRouter",
          "name": "",
          "type": "address"
        }
      ],
      "stateMutability": "view",
      "type": "function"
    },
    {
      "inputs": [
        {
          "internalType": "address",
          "name": "tokenAddress",
          "type": "address"
        },
        {
          "internalType": "address",
          "name": "aTokenAddress",
          "type": "address"
        },
        {
          "internalType": "uint256",
          "name": "amountWithdrow",
          "type": "uint256"
        }
      ],
      "name": "withdraw",
      "outputs": [],
      "stateMutability": "nonpayable",
      "type": "function"
    },
    {
      "stateMutability": "payable",
      "type": "receive"
    }
  ],
  "transactionHash": "0x0dc3e328f83f244b19fb78b8b49428df036916c79a7d649869d36eaf84377ab1",
  "args": [
    "0xE592427A0AEce92De3Edee1F18E0157C05861564",
    "0xB4FBF271143F4FBf7B91A5ded31805e42b2208d6",
    "0x368EedF3f56ad10b9bC57eed4Dac65B26Bb667f6"
  ],
  "numDeployments": 1,
  "solcInputHash": "93e10f3ab347ceb1dea83574f2503aa6",
  "bytecode": "0x60a06040523480156200001157600080fd5b5060405162001660380380620016608339818101604052810190620000379190620001ea565b82600060026101000a81548173ffffffffffffffffffffffffffffffffffffffff021916908373ffffffffffffffffffffffffffffffffffffffff16021790555081600160006101000a81548173ffffffffffffffffffffffffffffffffffffffff021916908373ffffffffffffffffffffffffffffffffffffffff1602179055508073ffffffffffffffffffffffffffffffffffffffff1660808173ffffffffffffffffffffffffffffffffffffffff168152505050505062000246565b600080fd5b600073ffffffffffffffffffffffffffffffffffffffff82169050919050565b60006200012882620000fb565b9050919050565b60006200013c826200011b565b9050919050565b6200014e816200012f565b81146200015a57600080fd5b50565b6000815190506200016e8162000143565b92915050565b600062000181826200011b565b9050919050565b620001938162000174565b81146200019f57600080fd5b50565b600081519050620001b38162000188565b92915050565b620001c4816200011b565b8114620001d057600080fd5b50565b600081519050620001e481620001b9565b92915050565b600080600060608486031215620002065762000205620000f6565b5b600062000216868287016200015d565b93505060206200022986828701620001a2565b92505060406200023c86828701620001d3565b9150509250925092565b6080516113db62000285600039600081816104cf015281816104f60152818161074f015281816107760152818161084f015261090701526113db6000f3fe6080604052600436106100745760003560e01c8063c31c9c071161004e578063c31c9c0714610118578063d9caed1214610143578063e94ad6d61461016c578063fdd090de146101975761007b565b80634aa4a4fc146100805780637befe807146100ab578063bfb1868a146100db5761007b565b3661007b57005b600080fd5b34801561008c57600080fd5b506100956101c2565b6040516100a29190610c55565b60405180910390f35b6100c560048036038101906100c09190610cee565b6101e8565b6040516100d29190610d47565b60405180910390f35b3480156100e757600080fd5b5061010260048036038101906100fd9190610d8e565b61059c565b60405161010f9190610d47565b60405180910390f35b34801561012457600080fd5b5061012d61081b565b60405161013a9190610e16565b60405180910390f35b34801561014f57600080fd5b5061016a60048036038101906101659190610e31565b610841565b005b34801561017857600080fd5b506101816108f3565b60405161018e9190610ea1565b60405180910390f35b3480156101a357600080fd5b506101ac610905565b6040516101b99190610edd565b60405180910390f35b600160009054906101000a900473ffffffffffffffffffffffffffffffffffffffff1681565b60008060003073ffffffffffffffffffffffffffffffffffffffff163460405161021190610f29565b60006040518083038185875af1925050503d806000811461024e576040519150601f19603f3d011682016040523d82523d6000602084013e610253565b606091505b509150915081610298576040517f08c379a000000000000000000000000000000000000000000000000000000000815260040161028f90610f9b565b60405180910390fd5b600160009054906101000a900473ffffffffffffffffffffffffffffffffffffffff1673ffffffffffffffffffffffffffffffffffffffff1663d0e30db0346040518263ffffffff1660e01b81526004016000604051808303818588803b15801561030257600080fd5b505af1158015610316573d6000803e3d6000fd5b505050505061036a600160009054906101000a900473ffffffffffffffffffffffffffffffffffffffff16600060029054906101000a900473ffffffffffffffffffffffffffffffffffffffff1634610929565b6000604051806101000160405280600160009054906101000a900473ffffffffffffffffffffffffffffffffffffffff1673ffffffffffffffffffffffffffffffffffffffff1681526020018773ffffffffffffffffffffffffffffffffffffffff1681526020018662ffffff1681526020013073ffffffffffffffffffffffffffffffffffffffff16815260200142815260200134815260200160008152602001600073ffffffffffffffffffffffffffffffffffffffff168152509050600060029054906101000a900473ffffffffffffffffffffffffffffffffffffffff1673ffffffffffffffffffffffffffffffffffffffff1663414bf389826040518263ffffffff1660e01b81526004016104849190611099565b6020604051808303816000875af11580156104a3573d6000803e3d6000fd5b505050506040513d601f19601f820116820180604052508101906104c791906110ca565b93506104f4867f000000000000000000000000000000000000000000000000000000000000000086610929565b7f000000000000000000000000000000000000000000000000000000000000000073ffffffffffffffffffffffffffffffffffffffff1663617ba03787863360008054906101000a900461ffff166040518563ffffffff1660e01b81526004016105619493929190611106565b600060405180830381600087803b15801561057b57600080fd5b505af115801561058f573d6000803e3d6000fd5b5050505050505092915050565b60006105aa84333088610a7e565b8273ffffffffffffffffffffffffffffffffffffffff168473ffffffffffffffffffffffffffffffffffffffff16146107495761060a84600060029054906101000a900473ffffffffffffffffffffffffffffffffffffffff1687610929565b60006040518061010001604052808673ffffffffffffffffffffffffffffffffffffffff1681526020018573ffffffffffffffffffffffffffffffffffffffff1681526020018462ffffff1681526020013073ffffffffffffffffffffffffffffffffffffffff16815260200142815260200187815260200160008152602001600073ffffffffffffffffffffffffffffffffffffffff168152509050600060029054906101000a900473ffffffffffffffffffffffffffffffffffffffff1673ffffffffffffffffffffffffffffffffffffffff1663414bf389826040518263ffffffff1660e01b81526004016107029190611099565b6020604051808303816000875af1158015610721573d6000803e3d6000fd5b505050506040513d601f19601f8201168201806040525081019061074591906110ca565b9150505b610774837f000000000000000000000000000000000000000000000000000000000000000083610929565b7f000000000000000000000000000000000000000000000000000000000000000073ffffffffffffffffffffffffffffffffffffffff1663617ba03784833360008054906101000a900461ffff166040518563ffffffff1660e01b81526004016107e19493929190611106565b600060405180830381600087803b1580156107fb57600080fd5b505af115801561080f573d6000803e3d6000fd5b50505050949350505050565b600060029054906101000a900473ffffffffffffffffffffffffffffffffffffffff1681565b61084d82333084610a7e565b7f000000000000000000000000000000000000000000000000000000000000000073ffffffffffffffffffffffffffffffffffffffff166369328dec8483336040518463ffffffff1660e01b81526004016108aa9392919061114b565b6020604051808303816000875af11580156108c9573d6000803e3d6000fd5b505050506040513d601f19601f820116820180604052508101906108ed91906110ca565b50505050565b60008054906101000a900461ffff1681565b7f000000000000000000000000000000000000000000000000000000000000000081565b6000808473ffffffffffffffffffffffffffffffffffffffff1663095ea7b360e01b858560405160240161095e929190611182565b604051602081830303815290604052907bffffffffffffffffffffffffffffffffffffffffffffffffffffffff19166020820180517bffffffffffffffffffffffffffffffffffffffffffffffffffffffff83818316178352505050506040516109c8919061121a565b6000604051808303816000865af19150503d8060008114610a05576040519150601f19603f3d011682016040523d82523d6000602084013e610a0a565b606091505b5091509150818015610a385750600081511480610a37575080806020019051810190610a369190611269565b5b5b610a77576040517f08c379a0000000000000000000000000000000000000000000000000000000008152600401610a6e906112e2565b60405180910390fd5b5050505050565b6000808573ffffffffffffffffffffffffffffffffffffffff166323b872dd60e01b868686604051602401610ab593929190611302565b604051602081830303815290604052907bffffffffffffffffffffffffffffffffffffffffffffffffffffffff19166020820180517bffffffffffffffffffffffffffffffffffffffffffffffffffffffff8381831617835250505050604051610b1f919061121a565b6000604051808303816000865af19150503d8060008114610b5c576040519150601f19603f3d011682016040523d82523d6000602084013e610b61565b606091505b5091509150818015610b8f5750600081511480610b8e575080806020019051810190610b8d9190611269565b5b5b610bce576040517f08c379a0000000000000000000000000000000000000000000000000000000008152600401610bc590611385565b60405180910390fd5b505050505050565b600073ffffffffffffffffffffffffffffffffffffffff82169050919050565b6000819050919050565b6000610c1b610c16610c1184610bd6565b610bf6565b610bd6565b9050919050565b6000610c2d82610c00565b9050919050565b6000610c3f82610c22565b9050919050565b610c4f81610c34565b82525050565b6000602082019050610c6a6000830184610c46565b92915050565b600080fd5b6000610c8082610bd6565b9050919050565b610c9081610c75565b8114610c9b57600080fd5b50565b600081359050610cad81610c87565b92915050565b600062ffffff82169050919050565b610ccb81610cb3565b8114610cd657600080fd5b50565b600081359050610ce881610cc2565b92915050565b60008060408385031215610d0557610d04610c70565b5b6000610d1385828601610c9e565b9250506020610d2485828601610cd9565b9150509250929050565b6000819050919050565b610d4181610d2e565b82525050565b6000602082019050610d5c6000830184610d38565b92915050565b610d6b81610d2e565b8114610d7657600080fd5b50565b600081359050610d8881610d62565b92915050565b60008060008060808587031215610da857610da7610c70565b5b6000610db687828801610d79565b9450506020610dc787828801610c9e565b9350506040610dd887828801610c9e565b9250506060610de987828801610cd9565b91505092959194509250565b6000610e0082610c22565b9050919050565b610e1081610df5565b82525050565b6000602082019050610e2b6000830184610e07565b92915050565b600080600060608486031215610e4a57610e49610c70565b5b6000610e5886828701610c9e565b9350506020610e6986828701610c9e565b9250506040610e7a86828701610d79565b9150509250925092565b600061ffff82169050919050565b610e9b81610e84565b82525050565b6000602082019050610eb66000830184610e92565b92915050565b6000610ec782610c22565b9050919050565b610ed781610ebc565b82525050565b6000602082019050610ef26000830184610ece565b92915050565b600081905092915050565b50565b6000610f13600083610ef8565b9150610f1e82610f03565b600082019050919050565b6000610f3482610f06565b9150819050919050565b600082825260208201905092915050565b7f4661696c656420746f2073656e64204574686572000000000000000000000000600082015250565b6000610f85601483610f3e565b9150610f9082610f4f565b602082019050919050565b60006020820190508181036000830152610fb481610f78565b9050919050565b610fc481610c75565b82525050565b610fd381610cb3565b82525050565b610fe281610d2e565b82525050565b610ff181610bd6565b82525050565b6101008201600082015161100e6000850182610fbb565b5060208201516110216020850182610fbb565b5060408201516110346040850182610fca565b5060608201516110476060850182610fbb565b50608082015161105a6080850182610fd9565b5060a082015161106d60a0850182610fd9565b5060c082015161108060c0850182610fd9565b5060e082015161109360e0850182610fe8565b50505050565b6000610100820190506110af6000830184610ff7565b92915050565b6000815190506110c481610d62565b92915050565b6000602082840312156110e0576110df610c70565b5b60006110ee848285016110b5565b91505092915050565b61110081610c75565b82525050565b600060808201905061111b60008301876110f7565b6111286020830186610d38565b61113560408301856110f7565b6111426060830184610e92565b95945050505050565b600060608201905061116060008301866110f7565b61116d6020830185610d38565b61117a60408301846110f7565b949350505050565b600060408201905061119760008301856110f7565b6111a46020830184610d38565b9392505050565b600081519050919050565b60005b838110156111d45780820151818401526020810190506111b9565b838111156111e3576000848401525b50505050565b60006111f4826111ab565b6111fe8185610ef8565b935061120e8185602086016111b6565b80840191505092915050565b600061122682846111e9565b915081905092915050565b60008115159050919050565b61124681611231565b811461125157600080fd5b50565b6000815190506112638161123d565b92915050565b60006020828403121561127f5761127e610c70565b5b600061128d84828501611254565b91505092915050565b7f5341000000000000000000000000000000000000000000000000000000000000600082015250565b60006112cc600283610f3e565b91506112d782611296565b602082019050919050565b600060208201905081810360008301526112fb816112bf565b9050919050565b600060608201905061131760008301866110f7565b61132460208301856110f7565b6113316040830184610d38565b949350505050565b7f5354460000000000000000000000000000000000000000000000000000000000600082015250565b600061136f600383610f3e565b915061137a82611339565b602082019050919050565b6000602082019050818103600083015261139e81611362565b905091905056fea2646970667358221220d74173b0a116544e87d6ade11a69761c1adc55e3e8b2d985f6e05426de9bd6c864736f6c634300080a0033",
  "devdoc": {
    "kind": "dev",
    "methods": {},
    "version": 1
  },
  "userdoc": {
    "kind": "user",
    "methods": {},
    "version": 1
  },
  "storageLayout": {
    "storage": [
      {
        "astId": 1953,
        "contract": "contracts/deLend.sol:deLend",
        "label": "Ref",
        "offset": 0,
        "slot": "0",
        "type": "t_uint16"
      },
      {
        "astId": 1956,
        "contract": "contracts/deLend.sol:deLend",
        "label": "swapRouter",
        "offset": 2,
        "slot": "0",
        "type": "t_contract(ISwapRouter)2960"
      },
      {
        "astId": 1959,
        "contract": "contracts/deLend.sol:deLend",
        "label": "WETH9",
        "offset": 0,
        "slot": "1",
        "type": "t_contract(IWETH9)1948"
      }
    ],
    "types": {
      "t_contract(ISwapRouter)2960": {
        "encoding": "inplace",
        "label": "contract ISwapRouter",
        "numberOfBytes": "20"
      },
      "t_contract(IWETH9)1948": {
        "encoding": "inplace",
        "label": "contract IWETH9",
        "numberOfBytes": "20"
      },
      "t_uint16": {
        "encoding": "inplace",
        "label": "uint16",
        "numberOfBytes": "2"
      }
    }
  }
}