{
  "address": "0x472A8Be63EE5999517873221906249385F5B27bB",
  "abi": [
    {
      "inputs": [
        {
          "internalType": "contract ISwapRouter",
          "name": "_swapRouter",
          "type": "address"
        },
        {
          "internalType": "contract IWETH",
          "name": "_WETH",
          "type": "address"
        },
        {
          "internalType": "contract IPoolAddressesProvider",
          "name": "_ADDRESSES_PROVIDER",
          "type": "address"
        },
        {
          "internalType": "contract AggregatorV3Interface",
          "name": "_priceFeed",
          "type": "address"
        }
      ],
      "stateMutability": "nonpayable",
      "type": "constructor"
    },
    {
      "inputs": [
        {
          "internalType": "address",
          "name": "tokenAddress",
          "type": "address"
        },
        {
          "internalType": "uint256",
          "name": "supplyAmount",
          "type": "uint256"
        }
      ],
      "name": "InsufficientAllowance",
      "type": "error"
    },
    {
      "inputs": [
        {
          "internalType": "uint256",
          "name": "balance",
          "type": "uint256"
        },
        {
          "internalType": "uint256",
          "name": "supplyAmount",
          "type": "uint256"
        }
      ],
      "name": "InsufficientBalance",
      "type": "error"
    },
    {
      "anonymous": false,
      "inputs": [
        {
          "indexed": true,
          "internalType": "address",
          "name": "previousOwner",
          "type": "address"
        },
        {
          "indexed": true,
          "internalType": "address",
          "name": "newOwner",
          "type": "address"
        }
      ],
      "name": "OwnershipTransferred",
      "type": "event"
    },
    {
      "anonymous": false,
      "inputs": [
        {
          "indexed": true,
          "internalType": "address",
          "name": "user",
          "type": "address"
        },
        {
          "indexed": true,
          "internalType": "address",
          "name": "token",
          "type": "address"
        },
        {
          "indexed": false,
          "internalType": "uint256",
          "name": "amount",
          "type": "uint256"
        }
      ],
      "name": "Successfull",
      "type": "event"
    },
    {
      "inputs": [],
      "name": "deLendCommission",
      "outputs": [
        {
          "internalType": "uint256",
          "name": "",
          "type": "uint256"
        }
      ],
      "stateMutability": "view",
      "type": "function"
    },
    {
      "inputs": [],
      "name": "owner",
      "outputs": [
        {
          "internalType": "address",
          "name": "",
          "type": "address"
        }
      ],
      "stateMutability": "view",
      "type": "function"
    },
    {
      "inputs": [],
      "name": "renounceOwnership",
      "outputs": [],
      "stateMutability": "nonpayable",
      "type": "function"
    },
    {
      "inputs": [
        {
          "internalType": "address",
          "name": "tokenAddressIn",
          "type": "address"
        },
        {
          "internalType": "uint24",
          "name": "_fee",
          "type": "uint24"
        }
      ],
      "name": "supplyFromETH",
      "outputs": [
        {
          "internalType": "uint256",
          "name": "amountOut",
          "type": "uint256"
        }
      ],
      "stateMutability": "payable",
      "type": "function"
    },
    {
      "inputs": [
        {
          "internalType": "uint256",
          "name": "amountIn",
          "type": "uint256"
        },
        {
          "internalType": "address",
          "name": "tokenAddressOut",
          "type": "address"
        },
        {
          "internalType": "address",
          "name": "tokenAddressIn",
          "type": "address"
        },
        {
          "internalType": "uint24",
          "name": "_fee",
          "type": "uint24"
        }
      ],
      "name": "supplyFromToken",
      "outputs": [
        {
          "internalType": "uint256",
          "name": "amountOut",
          "type": "uint256"
        }
      ],
      "stateMutability": "nonpayable",
      "type": "function"
    },
    {
      "inputs": [
        {
          "internalType": "address",
          "name": "newOwner",
          "type": "address"
        }
      ],
      "name": "transferOwnership",
      "outputs": [],
      "stateMutability": "nonpayable",
      "type": "function"
    },
    {
      "inputs": [
        {
          "internalType": "address",
          "name": "tokenAddress",
          "type": "address"
        },
        {
          "internalType": "address",
          "name": "aTokenAddress",
          "type": "address"
        },
        {
          "internalType": "uint256",
          "name": "amountWithdrow",
          "type": "uint256"
        }
      ],
      "name": "withdraw",
      "outputs": [],
      "stateMutability": "nonpayable",
      "type": "function"
    },
    {
      "inputs": [],
      "name": "withdrawETH",
      "outputs": [],
      "stateMutability": "nonpayable",
      "type": "function"
    },
    {
      "inputs": [
        {
          "internalType": "address",
          "name": "_tokenAddress",
          "type": "address"
        }
      ],
      "name": "withdrawToken",
      "outputs": [],
      "stateMutability": "nonpayable",
      "type": "function"
    },
    {
      "stateMutability": "payable",
      "type": "receive"
    }
  ],
  "transactionHash": "0xf201ce121e2f58efe286478386b434656e70350cc6bb9565694f68bbd33947cc",
  "args": [
    "0xE592427A0AEce92De3Edee1F18E0157C05861564",
    "0xB4FBF271143F4FBf7B91A5ded31805e42b2208d6",
    "0xc4dCB5126a3AfEd129BC3668Ea19285A9f56D15D",
    "0xD4a33860578De61DBAbDc8BFdb98FD742fA7028e"
  ],
  "numDeployments": 1,
  "solcInputHash": "da183bdcb244d234fc83d9c04880a088",
  "bytecode": "0x6101206040523480156200001257600080fd5b5060405162002682380380620026828339818101604052810190620000389190620003f3565b620000586200004c620001da60201b60201c565b620001e260201b60201c565b8373ffffffffffffffffffffffffffffffffffffffff1660808173ffffffffffffffffffffffffffffffffffffffff16815250508273ffffffffffffffffffffffffffffffffffffffff1660a08173ffffffffffffffffffffffffffffffffffffffff16815250508073ffffffffffffffffffffffffffffffffffffffff166101008173ffffffffffffffffffffffffffffffffffffffff16815250508173ffffffffffffffffffffffffffffffffffffffff1660c08173ffffffffffffffffffffffffffffffffffffffff168152505060c05173ffffffffffffffffffffffffffffffffffffffff1663026b1d5f6040518163ffffffff1660e01b8152600401602060405180830381865afa15801562000177573d6000803e3d6000fd5b505050506040513d601f19601f820116820180604052508101906200019d919062000496565b73ffffffffffffffffffffffffffffffffffffffff1660e08173ffffffffffffffffffffffffffffffffffffffff168152505050505050620004c8565b600033905090565b60008060009054906101000a900473ffffffffffffffffffffffffffffffffffffffff169050816000806101000a81548173ffffffffffffffffffffffffffffffffffffffff021916908373ffffffffffffffffffffffffffffffffffffffff1602179055508173ffffffffffffffffffffffffffffffffffffffff168173ffffffffffffffffffffffffffffffffffffffff167f8be0079c531659141344cd1fd0a4f28419497f9722a3daafe3b4186f6b6457e060405160405180910390a35050565b600080fd5b600073ffffffffffffffffffffffffffffffffffffffff82169050919050565b6000620002d882620002ab565b9050919050565b6000620002ec82620002cb565b9050919050565b620002fe81620002df565b81146200030a57600080fd5b50565b6000815190506200031e81620002f3565b92915050565b60006200033182620002cb565b9050919050565b620003438162000324565b81146200034f57600080fd5b50565b600081519050620003638162000338565b92915050565b60006200037682620002cb565b9050919050565b620003888162000369565b81146200039457600080fd5b50565b600081519050620003a8816200037d565b92915050565b6000620003bb82620002cb565b9050919050565b620003cd81620003ae565b8114620003d957600080fd5b50565b600081519050620003ed81620003c2565b92915050565b6000806000806080858703121562000410576200040f620002a6565b5b600062000420878288016200030d565b9450506020620004338782880162000352565b9350506040620004468782880162000397565b92505060606200045987828801620003dc565b91505092959194509250565b6200047081620002cb565b81146200047c57600080fd5b50565b600081519050620004908162000465565b92915050565b600060208284031215620004af57620004ae620002a6565b5b6000620004bf848285016200047f565b91505092915050565b60805160a05160c05160e051610100516121326200055060003960006110400152600081816105a8015281816105cf01528181610b0d01528181610b340152610df201526000505060008181610320015281816103b8015281816103f7015261044d015260008181610418015281816104fc0152818161099d0152610a6101526121326000f3fe60806040526004361061008a5760003560e01c80638da5cb5b116100595780638da5cb5b14610131578063bfb1868a1461015c578063d9caed1214610199578063e086e5ec146101c2578063f2fde38b146101d957610091565b8063551153ec14610096578063715018a6146100c15780637befe807146100d8578063894760691461010857610091565b3661009157005b600080fd5b3480156100a257600080fd5b506100ab610202565b6040516100b8919061163f565b60405180910390f35b3480156100cd57600080fd5b506100d6610232565b005b6100f260048036038101906100ed91906116f8565b610246565b6040516100ff919061163f565b60405180910390f35b34801561011457600080fd5b5061012f600480360381019061012a9190611738565b6106de565b005b34801561013d57600080fd5b50610146610773565b6040516101539190611774565b60405180910390f35b34801561016857600080fd5b50610183600480360381019061017e91906117bb565b61079c565b604051610190919061163f565b60405180910390f35b3480156101a557600080fd5b506101c060048036038101906101bb9190611822565b610c45565b005b3480156101ce57600080fd5b506101d7610f00565b005b3480156101e557600080fd5b5061020060048036038101906101fb9190611738565b610fb7565b005b60008061020d61103b565b90506000816a52b7d2dcc80cd2e400000061022891906118d3565b9050809250505090565b61023a6110da565b6102446000611158565b565b6000806000339050803b915060008214156106d65760003073ffffffffffffffffffffffffffffffffffffffff163460405161028190611935565b60006040518083038185875af1925050503d80600081146102be576040519150601f19603f3d011682016040523d82523d6000602084013e6102c3565b606091505b5050905080610307576040517f08c379a00000000000000000000000000000000000000000000000000000000081526004016102fe906119a7565b60405180910390fd5b6000610311610202565b3461031c91906119c7565b90507f000000000000000000000000000000000000000000000000000000000000000073ffffffffffffffffffffffffffffffffffffffff1663d0e30db0826040518263ffffffff1660e01b81526004016000604051808303818588803b15801561038657600080fd5b505af115801561039a573d6000803e3d6000fd5b50505050508673ffffffffffffffffffffffffffffffffffffffff167f000000000000000000000000000000000000000000000000000000000000000073ffffffffffffffffffffffffffffffffffffffff161461059e5761043d7f00000000000000000000000000000000000000000000000000000000000000007f00000000000000000000000000000000000000000000000000000000000000008361121c565b60006040518061010001604052807f000000000000000000000000000000000000000000000000000000000000000073ffffffffffffffffffffffffffffffffffffffff1681526020018973ffffffffffffffffffffffffffffffffffffffff1681526020018862ffffff1681526020013073ffffffffffffffffffffffffffffffffffffffff16815260200142815260200183815260200160008152602001600073ffffffffffffffffffffffffffffffffffffffff1681525090507f000000000000000000000000000000000000000000000000000000000000000073ffffffffffffffffffffffffffffffffffffffff1663414bf389826040518263ffffffff1660e01b81526004016105539190611ad9565b6020604051808303816000875af1158015610572573d6000803e3d6000fd5b505050506040513d601f19601f820116820180604052508101906105969190611b0a565b9550506105a2565b8094505b6105cd877f00000000000000000000000000000000000000000000000000000000000000008761121c565b7f000000000000000000000000000000000000000000000000000000000000000073ffffffffffffffffffffffffffffffffffffffff1663617ba037888733600060149054906101000a900461ffff166040518563ffffffff1660e01b815260040161063c9493929190611b54565b600060405180830381600087803b15801561065657600080fd5b505af115801561066a573d6000803e3d6000fd5b505050508673ffffffffffffffffffffffffffffffffffffffff163373ffffffffffffffffffffffffffffffffffffffff167f19e3c0de67294f56cfeacb1217558ac680cdb64f9b897b0bf99bb4dcf4a88582876040516106cb919061163f565b60405180910390a350505b505092915050565b6106e66110da565b60008173ffffffffffffffffffffffffffffffffffffffff166370a08231306040518263ffffffff1660e01b81526004016107219190611774565b602060405180830381865afa15801561073e573d6000803e3d6000fd5b505050506040513d601f19601f820116820180604052508101906107629190611b0a565b905061076f823383611371565b5050565b60008060009054906101000a900473ffffffffffffffffffffffffffffffffffffffff16905090565b6000806000339050803b91506000821415610c3b5760008673ffffffffffffffffffffffffffffffffffffffff1663dd62ed3e33306040518363ffffffff1660e01b81526004016107ee929190611b99565b602060405180830381865afa15801561080b573d6000803e3d6000fd5b505050506040513d601f19601f8201168201806040525081019061082f9190611b0a565b905060008773ffffffffffffffffffffffffffffffffffffffff166370a08231336040518263ffffffff1660e01b815260040161086c9190611774565b602060405180830381865afa158015610889573d6000803e3d6000fd5b505050506040513d601f19601f820116820180604052508101906108ad9190611b0a565b9050888210156108f65787896040517fdcbaa1750000000000000000000000000000000000000000000000000000000081526004016108ed929190611bc2565b60405180910390fd5b8881101561093d5780896040517fcf479181000000000000000000000000000000000000000000000000000000008152600401610934929190611beb565b60405180910390fd5b6109498833308c6114c6565b606460638a6109589190611c14565b61096291906118d3565b98508673ffffffffffffffffffffffffffffffffffffffff168873ffffffffffffffffffffffffffffffffffffffff1614610b03576109c2887f00000000000000000000000000000000000000000000000000000000000000008b61121c565b60006040518061010001604052808a73ffffffffffffffffffffffffffffffffffffffff1681526020018973ffffffffffffffffffffffffffffffffffffffff1681526020018862ffffff1681526020013073ffffffffffffffffffffffffffffffffffffffff1681526020014281526020018b815260200160008152602001600073ffffffffffffffffffffffffffffffffffffffff1681525090507f000000000000000000000000000000000000000000000000000000000000000073ffffffffffffffffffffffffffffffffffffffff1663414bf389826040518263ffffffff1660e01b8152600401610ab89190611ad9565b6020604051808303816000875af1158015610ad7573d6000803e3d6000fd5b505050506040513d601f19601f82011682018060405250810190610afb9190611b0a565b955050610b07565b8894505b610b32877f00000000000000000000000000000000000000000000000000000000000000008761121c565b7f000000000000000000000000000000000000000000000000000000000000000073ffffffffffffffffffffffffffffffffffffffff1663617ba037888733600060149054906101000a900461ffff166040518563ffffffff1660e01b8152600401610ba19493929190611b54565b600060405180830381600087803b158015610bbb57600080fd5b505af1158015610bcf573d6000803e3d6000fd5b505050508673ffffffffffffffffffffffffffffffffffffffff163373ffffffffffffffffffffffffffffffffffffffff167f19e3c0de67294f56cfeacb1217558ac680cdb64f9b897b0bf99bb4dcf4a8858287604051610c30919061163f565b60405180910390a350505b5050949350505050565b600080339050803b91506000821415610ef95760008473ffffffffffffffffffffffffffffffffffffffff1663dd62ed3e33306040518363ffffffff1660e01b8152600401610c95929190611b99565b602060405180830381865afa158015610cb2573d6000803e3d6000fd5b505050506040513d601f19601f82011682018060405250810190610cd69190611b0a565b905060008573ffffffffffffffffffffffffffffffffffffffff166370a08231336040518263ffffffff1660e01b8152600401610d139190611774565b602060405180830381865afa158015610d30573d6000803e3d6000fd5b505050506040513d601f19601f82011682018060405250810190610d549190611b0a565b905084821015610d9d5785856040517fdcbaa175000000000000000000000000000000000000000000000000000000008152600401610d94929190611bc2565b60405180910390fd5b84811015610de45780856040517fcf479181000000000000000000000000000000000000000000000000000000008152600401610ddb929190611beb565b60405180910390fd5b610df0863330886114c6565b7f000000000000000000000000000000000000000000000000000000000000000073ffffffffffffffffffffffffffffffffffffffff166369328dec8887336040518463ffffffff1660e01b8152600401610e4d93929190611c6e565b6020604051808303816000875af1158015610e6c573d6000803e3d6000fd5b505050506040513d601f19601f82011682018060405250810190610e909190611b0a565b508673ffffffffffffffffffffffffffffffffffffffff163373ffffffffffffffffffffffffffffffffffffffff167f19e3c0de67294f56cfeacb1217558ac680cdb64f9b897b0bf99bb4dcf4a8858287604051610eee919061163f565b60405180910390a350505b5050505050565b610f086110da565b60003373ffffffffffffffffffffffffffffffffffffffff1647604051610f2e90611935565b60006040518083038185875af1925050503d8060008114610f6b576040519150601f19603f3d011682016040523d82523d6000602084013e610f70565b606091505b5050905080610fb4576040517f08c379a0000000000000000000000000000000000000000000000000000000008152600401610fab906119a7565b60405180910390fd5b50565b610fbf6110da565b600073ffffffffffffffffffffffffffffffffffffffff168173ffffffffffffffffffffffffffffffffffffffff16141561102f576040517f08c379a000000000000000000000000000000000000000000000000000000000815260040161102690611d17565b60405180910390fd5b61103881611158565b50565b6000807f000000000000000000000000000000000000000000000000000000000000000073ffffffffffffffffffffffffffffffffffffffff1663feaf968c6040518163ffffffff1660e01b815260040160a060405180830381865afa1580156110a9573d6000803e3d6000fd5b505050506040513d601f19601f820116820180604052508101906110cd9190611daf565b5050509150508091505090565b6110e261161e565b73ffffffffffffffffffffffffffffffffffffffff16611100610773565b73ffffffffffffffffffffffffffffffffffffffff1614611156576040517f08c379a000000000000000000000000000000000000000000000000000000000815260040161114d90611e76565b60405180910390fd5b565b60008060009054906101000a900473ffffffffffffffffffffffffffffffffffffffff169050816000806101000a81548173ffffffffffffffffffffffffffffffffffffffff021916908373ffffffffffffffffffffffffffffffffffffffff1602179055508173ffffffffffffffffffffffffffffffffffffffff168173ffffffffffffffffffffffffffffffffffffffff167f8be0079c531659141344cd1fd0a4f28419497f9722a3daafe3b4186f6b6457e060405160405180910390a35050565b6000808473ffffffffffffffffffffffffffffffffffffffff1663095ea7b360e01b8585604051602401611251929190611bc2565b604051602081830303815290604052907bffffffffffffffffffffffffffffffffffffffffffffffffffffffff19166020820180517bffffffffffffffffffffffffffffffffffffffffffffffffffffffff83818316178352505050506040516112bb9190611f05565b6000604051808303816000865af19150503d80600081146112f8576040519150601f19603f3d011682016040523d82523d6000602084013e6112fd565b606091505b509150915081801561132b575060008151148061132a5750808060200190518101906113299190611f54565b5b5b61136a576040517f08c379a000000000000000000000000000000000000000000000000000000000815260040161136190611fcd565b60405180910390fd5b5050505050565b6000808473ffffffffffffffffffffffffffffffffffffffff1663a9059cbb60e01b85856040516024016113a6929190611bc2565b604051602081830303815290604052907bffffffffffffffffffffffffffffffffffffffffffffffffffffffff19166020820180517bffffffffffffffffffffffffffffffffffffffffffffffffffffffff83818316178352505050506040516114109190611f05565b6000604051808303816000865af19150503d806000811461144d576040519150601f19603f3d011682016040523d82523d6000602084013e611452565b606091505b5091509150818015611480575060008151148061147f57508080602001905181019061147e9190611f54565b5b5b6114bf576040517f08c379a00000000000000000000000000000000000000000000000000000000081526004016114b690612039565b60405180910390fd5b5050505050565b6000808573ffffffffffffffffffffffffffffffffffffffff166323b872dd60e01b8686866040516024016114fd93929190612059565b604051602081830303815290604052907bffffffffffffffffffffffffffffffffffffffffffffffffffffffff19166020820180517bffffffffffffffffffffffffffffffffffffffffffffffffffffffff83818316178352505050506040516115679190611f05565b6000604051808303816000865af19150503d80600081146115a4576040519150601f19603f3d011682016040523d82523d6000602084013e6115a9565b606091505b50915091508180156115d757506000815114806115d65750808060200190518101906115d59190611f54565b5b5b611616576040517f08c379a000000000000000000000000000000000000000000000000000000000815260040161160d906120dc565b60405180910390fd5b505050505050565b600033905090565b6000819050919050565b61163981611626565b82525050565b60006020820190506116546000830184611630565b92915050565b600080fd5b600073ffffffffffffffffffffffffffffffffffffffff82169050919050565b600061168a8261165f565b9050919050565b61169a8161167f565b81146116a557600080fd5b50565b6000813590506116b781611691565b92915050565b600062ffffff82169050919050565b6116d5816116bd565b81146116e057600080fd5b50565b6000813590506116f2816116cc565b92915050565b6000806040838503121561170f5761170e61165a565b5b600061171d858286016116a8565b925050602061172e858286016116e3565b9150509250929050565b60006020828403121561174e5761174d61165a565b5b600061175c848285016116a8565b91505092915050565b61176e8161167f565b82525050565b60006020820190506117896000830184611765565b92915050565b61179881611626565b81146117a357600080fd5b50565b6000813590506117b58161178f565b92915050565b600080600080608085870312156117d5576117d461165a565b5b60006117e3878288016117a6565b94505060206117f4878288016116a8565b9350506040611805878288016116a8565b9250506060611816878288016116e3565b91505092959194509250565b60008060006060848603121561183b5761183a61165a565b5b6000611849868287016116a8565b935050602061185a868287016116a8565b925050604061186b868287016117a6565b9150509250925092565b7f4e487b7100000000000000000000000000000000000000000000000000000000600052601260045260246000fd5b7f4e487b7100000000000000000000000000000000000000000000000000000000600052601160045260246000fd5b60006118de82611626565b91506118e983611626565b9250826118f9576118f8611875565b5b828204905092915050565b600081905092915050565b50565b600061191f600083611904565b915061192a8261190f565b600082019050919050565b600061194082611912565b9150819050919050565b600082825260208201905092915050565b7f4661696c656420746f2073656e64204574686572000000000000000000000000600082015250565b600061199160148361194a565b915061199c8261195b565b602082019050919050565b600060208201905081810360008301526119c081611984565b9050919050565b60006119d282611626565b91506119dd83611626565b9250828210156119f0576119ef6118a4565b5b828203905092915050565b611a048161167f565b82525050565b611a13816116bd565b82525050565b611a2281611626565b82525050565b611a318161165f565b82525050565b61010082016000820151611a4e60008501826119fb565b506020820151611a6160208501826119fb565b506040820151611a746040850182611a0a565b506060820151611a8760608501826119fb565b506080820151611a9a6080850182611a19565b5060a0820151611aad60a0850182611a19565b5060c0820151611ac060c0850182611a19565b5060e0820151611ad360e0850182611a28565b50505050565b600061010082019050611aef6000830184611a37565b92915050565b600081519050611b048161178f565b92915050565b600060208284031215611b2057611b1f61165a565b5b6000611b2e84828501611af5565b91505092915050565b600061ffff82169050919050565b611b4e81611b37565b82525050565b6000608082019050611b696000830187611765565b611b766020830186611630565b611b836040830185611765565b611b906060830184611b45565b95945050505050565b6000604082019050611bae6000830185611765565b611bbb6020830184611765565b9392505050565b6000604082019050611bd76000830185611765565b611be46020830184611630565b9392505050565b6000604082019050611c006000830185611630565b611c0d6020830184611630565b9392505050565b6000611c1f82611626565b9150611c2a83611626565b9250817fffffffffffffffffffffffffffffffffffffffffffffffffffffffffffffffff0483118215151615611c6357611c626118a4565b5b828202905092915050565b6000606082019050611c836000830186611765565b611c906020830185611630565b611c9d6040830184611765565b949350505050565b7f4f776e61626c653a206e6577206f776e657220697320746865207a65726f206160008201527f6464726573730000000000000000000000000000000000000000000000000000602082015250565b6000611d0160268361194a565b9150611d0c82611ca5565b604082019050919050565b60006020820190508181036000830152611d3081611cf4565b9050919050565b600069ffffffffffffffffffff82169050919050565b611d5681611d37565b8114611d6157600080fd5b50565b600081519050611d7381611d4d565b92915050565b6000819050919050565b611d8c81611d79565b8114611d9757600080fd5b50565b600081519050611da981611d83565b92915050565b600080600080600060a08688031215611dcb57611dca61165a565b5b6000611dd988828901611d64565b9550506020611dea88828901611d9a565b9450506040611dfb88828901611af5565b9350506060611e0c88828901611af5565b9250506080611e1d88828901611d64565b9150509295509295909350565b7f4f776e61626c653a2063616c6c6572206973206e6f7420746865206f776e6572600082015250565b6000611e6060208361194a565b9150611e6b82611e2a565b602082019050919050565b60006020820190508181036000830152611e8f81611e53565b9050919050565b600081519050919050565b60005b83811015611ebf578082015181840152602081019050611ea4565b83811115611ece576000848401525b50505050565b6000611edf82611e96565b611ee98185611904565b9350611ef9818560208601611ea1565b80840191505092915050565b6000611f118284611ed4565b915081905092915050565b60008115159050919050565b611f3181611f1c565b8114611f3c57600080fd5b50565b600081519050611f4e81611f28565b92915050565b600060208284031215611f6a57611f6961165a565b5b6000611f7884828501611f3f565b91505092915050565b7f5341000000000000000000000000000000000000000000000000000000000000600082015250565b6000611fb760028361194a565b9150611fc282611f81565b602082019050919050565b60006020820190508181036000830152611fe681611faa565b9050919050565b7f5354000000000000000000000000000000000000000000000000000000000000600082015250565b600061202360028361194a565b915061202e82611fed565b602082019050919050565b6000602082019050818103600083015261205281612016565b9050919050565b600060608201905061206e6000830186611765565b61207b6020830185611765565b6120886040830184611630565b949350505050565b7f5354460000000000000000000000000000000000000000000000000000000000600082015250565b60006120c660038361194a565b91506120d182612090565b602082019050919050565b600060208201905081810360008301526120f5816120b9565b905091905056fea2646970667358221220b0e97fdb1d9e28810159682d55b151a682853dd9c5232c19560a443ce81d150464736f6c634300080a0033",
  "devdoc": {
    "kind": "dev",
    "methods": {
      "owner()": {
        "details": "Returns the address of the current owner."
      },
      "renounceOwnership()": {
        "details": "Leaves the contract without owner. It will not be possible to call `onlyOwner` functions anymore. Can only be called by the current owner. NOTE: Renouncing ownership will leave the contract without an owner, thereby removing any functionality that is only available to the owner."
      },
      "transferOwnership(address)": {
        "details": "Transfers ownership of the contract to a new account (`newOwner`). Can only be called by the current owner."
      }
    },
    "version": 1
  },
  "userdoc": {
    "kind": "user",
    "methods": {},
    "version": 1
  },
  "storageLayout": {
    "storage": [
      {
        "astId": 3232,
        "contract": "contracts/deLend.sol:deLend",
        "label": "_owner",
        "offset": 0,
        "slot": "0",
        "type": "t_address"
      },
      {
        "astId": 1769,
        "contract": "contracts/deLend.sol:deLend",
        "label": "Ref",
        "offset": 20,
        "slot": "0",
        "type": "t_uint16"
      }
    ],
    "types": {
      "t_address": {
        "encoding": "inplace",
        "label": "address",
        "numberOfBytes": "20"
      },
      "t_uint16": {
        "encoding": "inplace",
        "label": "uint16",
        "numberOfBytes": "2"
      }
    }
  }
}