{
  "address": "0x36098C864b6780c275E7bBBf39A7Bcf11BaE33D9",
  "abi": [
    {
      "inputs": [
        {
          "internalType": "address",
          "name": "poolAddress",
          "type": "address"
        }
      ],
      "stateMutability": "nonpayable",
      "type": "constructor"
    },
    {
      "inputs": [],
      "name": "Ref",
      "outputs": [
        {
          "internalType": "uint16",
          "name": "",
          "type": "uint16"
        }
      ],
      "stateMutability": "view",
      "type": "function"
    },
    {
      "inputs": [],
      "name": "poolAAVE",
      "outputs": [
        {
          "internalType": "contract IPool",
          "name": "",
          "type": "address"
        }
      ],
      "stateMutability": "view",
      "type": "function"
    },
    {
      "inputs": [
        {
          "internalType": "address",
          "name": "tokenAddress",
          "type": "address"
        },
        {
          "internalType": "uint256",
          "name": "amountDeposit",
          "type": "uint256"
        }
      ],
      "name": "supply",
      "outputs": [],
      "stateMutability": "nonpayable",
      "type": "function"
    },
    {
      "inputs": [
        {
          "internalType": "address",
          "name": "tokenAddress",
          "type": "address"
        },
        {
          "internalType": "uint256",
          "name": "amountWithdrow",
          "type": "uint256"
        }
      ],
      "name": "withdraw",
      "outputs": [],
      "stateMutability": "nonpayable",
      "type": "function"
    }
  ],
  "transactionHash": "0x52a3df58daf50da829359baf63fae54ee6a39ff82a82744ebe860f79c5e7b5b9",
  "args": [
    "0x4bd5643ac6f66a5237E18bfA7d47cF22f1c9F210"
  ],
  "numDeployments": 1,
  "solcInputHash": "c41853fda443b48a41e71957f54cb5a1",
  "bytecode": "0x60a060405234801561001057600080fd5b50604051610d48380380610d48833981810160405281019061003291906100cf565b8073ffffffffffffffffffffffffffffffffffffffff1660808173ffffffffffffffffffffffffffffffffffffffff1681525050506100fc565b600080fd5b600073ffffffffffffffffffffffffffffffffffffffff82169050919050565b600061009c82610071565b9050919050565b6100ac81610091565b81146100b757600080fd5b50565b6000815190506100c9816100a3565b92915050565b6000602082840312156100e5576100e461006c565b5b60006100f3848285016100ba565b91505092915050565b608051610c1c61012c60003960008181610337015281816103ba0152818161053401526106300152610c1c6000f3fe608060405234801561001057600080fd5b506004361061004c5760003560e01c8063e94ad6d614610051578063f2b9fdb81461006f578063f3fef3a31461008b578063fdd090de146100a7575b600080fd5b6100596100c5565b604051610066919061066f565b60405180910390f35b61008960048036038101906100849190610723565b6100d7565b005b6100a560048036038101906100a09190610723565b6104a1565b005b6100af61062e565b6040516100bc91906107c2565b60405180910390f35b60008054906101000a900461ffff1681565b806000811161011b576040517f08c379a00000000000000000000000000000000000000000000000000000000081526004016101129061083a565b60405180910390fd5b6000839050828173ffffffffffffffffffffffffffffffffffffffff166370a08231336040518263ffffffff1660e01b815260040161015a9190610869565b602060405180830381865afa158015610177573d6000803e3d6000fd5b505050506040513d601f19601f8201168201806040525081019061019b9190610899565b116101db576040517f08c379a00000000000000000000000000000000000000000000000000000000081526004016101d290610912565b60405180910390fd5b828173ffffffffffffffffffffffffffffffffffffffff1663dd62ed3e33306040518363ffffffff1660e01b8152600401610217929190610932565b602060405180830381865afa158015610234573d6000803e3d6000fd5b505050506040513d601f19601f820116820180604052508101906102589190610899565b11610298576040517f08c379a000000000000000000000000000000000000000000000000000000000815260040161028f906109a7565b60405180910390fd5b8073ffffffffffffffffffffffffffffffffffffffff166323b872dd3330866040518463ffffffff1660e01b81526004016102d5939291906109d6565b6020604051808303816000875af11580156102f4573d6000803e3d6000fd5b505050506040513d601f19601f820116820180604052508101906103189190610a45565b508073ffffffffffffffffffffffffffffffffffffffff1663095ea7b37f0000000000000000000000000000000000000000000000000000000000000000856040518363ffffffff1660e01b8152600401610374929190610a72565b6020604051808303816000875af1158015610393573d6000803e3d6000fd5b505050506040513d601f19601f820116820180604052508101906103b79190610a45565b507f000000000000000000000000000000000000000000000000000000000000000073ffffffffffffffffffffffffffffffffffffffff1663617ba03785853060008054906101000a900461ffff166040518563ffffffff1660e01b81526004016104259493929190610a9b565b600060405180830381600087803b15801561043f57600080fd5b505af1158015610453573d6000803e3d6000fd5b5050505082600160003373ffffffffffffffffffffffffffffffffffffffff1673ffffffffffffffffffffffffffffffffffffffff1681526020019081526020016000208190555050505050565b600082905081600160003373ffffffffffffffffffffffffffffffffffffffff1673ffffffffffffffffffffffffffffffffffffffff1681526020019081526020016000205411806104f35750600082115b610532576040517f08c379a000000000000000000000000000000000000000000000000000000000815260040161052990610b2c565b60405180910390fd5b7f000000000000000000000000000000000000000000000000000000000000000073ffffffffffffffffffffffffffffffffffffffff166369328dec8284336040518463ffffffff1660e01b815260040161058f93929190610b4c565b6020604051808303816000875af11580156105ae573d6000803e3d6000fd5b505050506040513d601f19601f820116820180604052508101906105d29190610899565b5081600160003373ffffffffffffffffffffffffffffffffffffffff1673ffffffffffffffffffffffffffffffffffffffff16815260200190815260200160002060008282546106229190610bb2565b92505081905550505050565b7f000000000000000000000000000000000000000000000000000000000000000081565b600061ffff82169050919050565b61066981610652565b82525050565b60006020820190506106846000830184610660565b92915050565b600080fd5b600073ffffffffffffffffffffffffffffffffffffffff82169050919050565b60006106ba8261068f565b9050919050565b6106ca816106af565b81146106d557600080fd5b50565b6000813590506106e7816106c1565b92915050565b6000819050919050565b610700816106ed565b811461070b57600080fd5b50565b60008135905061071d816106f7565b92915050565b6000806040838503121561073a5761073961068a565b5b6000610748858286016106d8565b92505060206107598582860161070e565b9150509250929050565b6000819050919050565b600061078861078361077e8461068f565b610763565b61068f565b9050919050565b600061079a8261076d565b9050919050565b60006107ac8261078f565b9050919050565b6107bc816107a1565b82525050565b60006020820190506107d760008301846107b3565b92915050565b600082825260208201905092915050565b7f596f752061726520747279696e672073656e64203020746f6b656e7300000000600082015250565b6000610824601c836107dd565b915061082f826107ee565b602082019050919050565b6000602082019050818103600083015261085381610817565b9050919050565b610863816106af565b82525050565b600060208201905061087e600083018461085a565b92915050565b600081519050610893816106f7565b92915050565b6000602082840312156108af576108ae61068a565b5b60006108bd84828501610884565b91505092915050565b7f596f7520646f6e74206861766520656e6f75676820746f6b656e730000000000600082015250565b60006108fc601b836107dd565b9150610907826108c6565b602082019050919050565b6000602082019050818103600083015261092b816108ef565b9050919050565b6000604082019050610947600083018561085a565b610954602083018461085a565b9392505050565b7f596f75206e65656420617070726f766520666972737400000000000000000000600082015250565b60006109916016836107dd565b915061099c8261095b565b602082019050919050565b600060208201905081810360008301526109c081610984565b9050919050565b6109d0816106ed565b82525050565b60006060820190506109eb600083018661085a565b6109f8602083018561085a565b610a0560408301846109c7565b949350505050565b60008115159050919050565b610a2281610a0d565b8114610a2d57600080fd5b50565b600081519050610a3f81610a19565b92915050565b600060208284031215610a5b57610a5a61068a565b5b6000610a6984828501610a30565b91505092915050565b6000604082019050610a87600083018561085a565b610a9460208301846109c7565b9392505050565b6000608082019050610ab0600083018761085a565b610abd60208301866109c7565b610aca604083018561085a565b610ad76060830184610660565b95945050505050565b7f4e6f7420656e6f7567682062616c616e63650000000000000000000000000000600082015250565b6000610b166012836107dd565b9150610b2182610ae0565b602082019050919050565b60006020820190508181036000830152610b4581610b09565b9050919050565b6000606082019050610b61600083018661085a565b610b6e60208301856109c7565b610b7b604083018461085a565b949350505050565b7f4e487b7100000000000000000000000000000000000000000000000000000000600052601160045260246000fd5b6000610bbd826106ed565b9150610bc8836106ed565b925082821015610bdb57610bda610b83565b5b82820390509291505056fea2646970667358221220baac08d47f6e5b7bf66b058c3a400ff1b6d4692b54ea8b5bd523b5a90d5a34c664736f6c634300080a0033",
  "devdoc": {
    "kind": "dev",
    "methods": {},
    "version": 1
  },
  "userdoc": {
    "kind": "user",
    "methods": {},
    "version": 1
  },
  "storageLayout": {
    "storage": [
      {
        "astId": 1571,
        "contract": "contracts/DepositAAVE.sol:DepositAAVE",
        "label": "Ref",
        "offset": 0,
        "slot": "0",
        "type": "t_uint16"
      },
      {
        "astId": 1575,
        "contract": "contracts/DepositAAVE.sol:DepositAAVE",
        "label": "depositBalances",
        "offset": 0,
        "slot": "1",
        "type": "t_mapping(t_address,t_uint256)"
      }
    ],
    "types": {
      "t_address": {
        "encoding": "inplace",
        "label": "address",
        "numberOfBytes": "20"
      },
      "t_mapping(t_address,t_uint256)": {
        "encoding": "mapping",
        "key": "t_address",
        "label": "mapping(address => uint256)",
        "numberOfBytes": "32",
        "value": "t_uint256"
      },
      "t_uint16": {
        "encoding": "inplace",
        "label": "uint16",
        "numberOfBytes": "2"
      },
      "t_uint256": {
        "encoding": "inplace",
        "label": "uint256",
        "numberOfBytes": "32"
      }
    }
  }
}