{
  "address": "0x6387dEa46832534AEfd827F83D5f9D85f93285B3",
  "abi": [
    {
      "inputs": [
        {
          "internalType": "contract ISwapRouter",
          "name": "_swapRouter",
          "type": "address"
        },
        {
          "internalType": "contract IWETH",
          "name": "_WETH",
          "type": "address"
        },
        {
          "internalType": "contract IPoolAddressesProvider",
          "name": "_ADDRESSES_PROVIDER",
          "type": "address"
        },
        {
          "internalType": "contract AggregatorV3Interface",
          "name": "_priceFeed",
          "type": "address"
        }
      ],
      "stateMutability": "nonpayable",
      "type": "constructor"
    },
    {
      "inputs": [
        {
          "internalType": "address",
          "name": "tokenAddress",
          "type": "address"
        },
        {
          "internalType": "uint256",
          "name": "supplyAmount",
          "type": "uint256"
        }
      ],
      "name": "InsufficientAllowance",
      "type": "error"
    },
    {
      "inputs": [
        {
          "internalType": "uint256",
          "name": "balance",
          "type": "uint256"
        },
        {
          "internalType": "uint256",
          "name": "supplyAmount",
          "type": "uint256"
        }
      ],
      "name": "InsufficientBalance",
      "type": "error"
    },
    {
      "anonymous": false,
      "inputs": [
        {
          "indexed": true,
          "internalType": "address",
          "name": "previousOwner",
          "type": "address"
        },
        {
          "indexed": true,
          "internalType": "address",
          "name": "newOwner",
          "type": "address"
        }
      ],
      "name": "OwnershipTransferred",
      "type": "event"
    },
    {
      "anonymous": false,
      "inputs": [
        {
          "indexed": true,
          "internalType": "address",
          "name": "user",
          "type": "address"
        },
        {
          "indexed": true,
          "internalType": "address",
          "name": "token",
          "type": "address"
        },
        {
          "indexed": false,
          "internalType": "uint256",
          "name": "amount",
          "type": "uint256"
        }
      ],
      "name": "Successfull",
      "type": "event"
    },
    {
      "inputs": [],
      "name": "deLendCommission",
      "outputs": [
        {
          "internalType": "uint256",
          "name": "",
          "type": "uint256"
        }
      ],
      "stateMutability": "view",
      "type": "function"
    },
    {
      "inputs": [],
      "name": "owner",
      "outputs": [
        {
          "internalType": "address",
          "name": "",
          "type": "address"
        }
      ],
      "stateMutability": "view",
      "type": "function"
    },
    {
      "inputs": [],
      "name": "renounceOwnership",
      "outputs": [],
      "stateMutability": "nonpayable",
      "type": "function"
    },
    {
      "inputs": [
        {
          "internalType": "address",
          "name": "tokenAddressIn",
          "type": "address"
        },
        {
          "internalType": "uint24",
          "name": "_fee",
          "type": "uint24"
        }
      ],
      "name": "supplyFromETH",
      "outputs": [
        {
          "internalType": "uint256",
          "name": "amountOut",
          "type": "uint256"
        }
      ],
      "stateMutability": "payable",
      "type": "function"
    },
    {
      "inputs": [
        {
          "internalType": "uint256",
          "name": "amountIn",
          "type": "uint256"
        },
        {
          "internalType": "address",
          "name": "tokenAddressOut",
          "type": "address"
        },
        {
          "internalType": "address",
          "name": "tokenAddressIn",
          "type": "address"
        },
        {
          "internalType": "uint24",
          "name": "_fee",
          "type": "uint24"
        }
      ],
      "name": "supplyFromToken",
      "outputs": [
        {
          "internalType": "uint256",
          "name": "amountOut",
          "type": "uint256"
        }
      ],
      "stateMutability": "nonpayable",
      "type": "function"
    },
    {
      "inputs": [
        {
          "internalType": "address",
          "name": "newOwner",
          "type": "address"
        }
      ],
      "name": "transferOwnership",
      "outputs": [],
      "stateMutability": "nonpayable",
      "type": "function"
    },
    {
      "inputs": [
        {
          "internalType": "address",
          "name": "tokenAddress",
          "type": "address"
        },
        {
          "internalType": "address",
          "name": "aTokenAddress",
          "type": "address"
        },
        {
          "internalType": "uint256",
          "name": "amountWithdrow",
          "type": "uint256"
        }
      ],
      "name": "withdraw",
      "outputs": [],
      "stateMutability": "nonpayable",
      "type": "function"
    },
    {
      "inputs": [],
      "name": "withdrawETH",
      "outputs": [],
      "stateMutability": "nonpayable",
      "type": "function"
    },
    {
      "inputs": [
        {
          "internalType": "address",
          "name": "_tokenAddress",
          "type": "address"
        }
      ],
      "name": "withdrawToken",
      "outputs": [],
      "stateMutability": "nonpayable",
      "type": "function"
    },
    {
      "stateMutability": "payable",
      "type": "receive"
    }
  ],
  "transactionHash": "0x99702fd910c6c17f7cdfc8ece8fe3323acb7a955028a933c4b521b899f31b225",
  "args": [
    "0xE592427A0AEce92De3Edee1F18E0157C05861564",
    "0x0d500B1d8E8eF31E21C99d1Db9A6444d3ADf1270",
    "0xa97684ead0e402dC232d5A977953DF7ECBaB3CDb",
    "0xF9680D99D6C9589e2a93a78A04A279e509205945"
  ],
  "numDeployments": 1,
  "solcInputHash": "33ccf2656f5671750a48f384ae67a98e",
  "bytecode": "0x6101206040523480156200001257600080fd5b5060405162002680380380620026808339818101604052810190620000389190620003f3565b620000586200004c620001da60201b60201c565b620001e260201b60201c565b8373ffffffffffffffffffffffffffffffffffffffff1660808173ffffffffffffffffffffffffffffffffffffffff16815250508273ffffffffffffffffffffffffffffffffffffffff1660a08173ffffffffffffffffffffffffffffffffffffffff16815250508073ffffffffffffffffffffffffffffffffffffffff166101008173ffffffffffffffffffffffffffffffffffffffff16815250508173ffffffffffffffffffffffffffffffffffffffff1660c08173ffffffffffffffffffffffffffffffffffffffff168152505060c05173ffffffffffffffffffffffffffffffffffffffff1663026b1d5f6040518163ffffffff1660e01b8152600401602060405180830381865afa15801562000177573d6000803e3d6000fd5b505050506040513d601f19601f820116820180604052508101906200019d919062000496565b73ffffffffffffffffffffffffffffffffffffffff1660e08173ffffffffffffffffffffffffffffffffffffffff168152505050505050620004c8565b600033905090565b60008060009054906101000a900473ffffffffffffffffffffffffffffffffffffffff169050816000806101000a81548173ffffffffffffffffffffffffffffffffffffffff021916908373ffffffffffffffffffffffffffffffffffffffff1602179055508173ffffffffffffffffffffffffffffffffffffffff168173ffffffffffffffffffffffffffffffffffffffff167f8be0079c531659141344cd1fd0a4f28419497f9722a3daafe3b4186f6b6457e060405160405180910390a35050565b600080fd5b600073ffffffffffffffffffffffffffffffffffffffff82169050919050565b6000620002d882620002ab565b9050919050565b6000620002ec82620002cb565b9050919050565b620002fe81620002df565b81146200030a57600080fd5b50565b6000815190506200031e81620002f3565b92915050565b60006200033182620002cb565b9050919050565b620003438162000324565b81146200034f57600080fd5b50565b600081519050620003638162000338565b92915050565b60006200037682620002cb565b9050919050565b620003888162000369565b81146200039457600080fd5b50565b600081519050620003a8816200037d565b92915050565b6000620003bb82620002cb565b9050919050565b620003cd81620003ae565b8114620003d957600080fd5b50565b600081519050620003ed81620003c2565b92915050565b6000806000806080858703121562000410576200040f620002a6565b5b600062000420878288016200030d565b9450506020620004338782880162000352565b9350506040620004468782880162000397565b92505060606200045987828801620003dc565b91505092959194509250565b6200047081620002cb565b81146200047c57600080fd5b50565b600081519050620004908162000465565b92915050565b600060208284031215620004af57620004ae620002a6565b5b6000620004bf848285016200047f565b91505092915050565b60805160a05160c05160e0516101005161213062000550600039600061103e0152600081816105aa015281816105d101528181610b0801528181610b2f0152610ded01526000505060008181610322015281816103ba015281816103f9015261044f01526000818161041a015281816104fe015281816109a00152610a6401526121306000f3fe60806040526004361061008a5760003560e01c80638da5cb5b116100595780638da5cb5b14610131578063bfb1868a1461015c578063d9caed1214610199578063e086e5ec146101c2578063f2fde38b146101d957610091565b8063551153ec14610096578063715018a6146100c15780637befe807146100d8578063894760691461010857610091565b3661009157005b600080fd5b3480156100a257600080fd5b506100ab610202565b6040516100b8919061163d565b60405180910390f35b3480156100cd57600080fd5b506100d6610232565b005b6100f260048036038101906100ed91906116f6565b610246565b6040516100ff919061163d565b60405180910390f35b34801561011457600080fd5b5061012f600480360381019061012a9190611736565b6106e1565b005b34801561013d57600080fd5b50610146610776565b6040516101539190611772565b60405180910390f35b34801561016857600080fd5b50610183600480360381019061017e91906117b9565b61079f565b604051610190919061163d565b60405180910390f35b3480156101a557600080fd5b506101c060048036038101906101bb9190611820565b610c40565b005b3480156101ce57600080fd5b506101d7610efb565b005b3480156101e557600080fd5b5061020060048036038101906101fb9190611736565b610fb5565b005b60008061020d611039565b90506000816a52b7d2dcc80cd2e400000061022891906118d1565b9050809250505090565b61023a6110d8565b6102446000611156565b565b6000806000339050803b915060008214156106d9576000803073ffffffffffffffffffffffffffffffffffffffff163460405161028290611933565b60006040518083038185875af1925050503d80600081146102bf576040519150601f19603f3d011682016040523d82523d6000602084013e6102c4565b606091505b509150915081610309576040517f08c379a0000000000000000000000000000000000000000000000000000000008152600401610300906119a5565b60405180910390fd5b6000610313610202565b3461031e91906119c5565b90507f000000000000000000000000000000000000000000000000000000000000000073ffffffffffffffffffffffffffffffffffffffff1663d0e30db0826040518263ffffffff1660e01b81526004016000604051808303818588803b15801561038857600080fd5b505af115801561039c573d6000803e3d6000fd5b50505050508773ffffffffffffffffffffffffffffffffffffffff167f000000000000000000000000000000000000000000000000000000000000000073ffffffffffffffffffffffffffffffffffffffff16146105a05761043f7f00000000000000000000000000000000000000000000000000000000000000007f00000000000000000000000000000000000000000000000000000000000000008361121a565b60006040518061010001604052807f000000000000000000000000000000000000000000000000000000000000000073ffffffffffffffffffffffffffffffffffffffff1681526020018a73ffffffffffffffffffffffffffffffffffffffff1681526020018962ffffff1681526020013073ffffffffffffffffffffffffffffffffffffffff16815260200142815260200183815260200160008152602001600073ffffffffffffffffffffffffffffffffffffffff1681525090507f000000000000000000000000000000000000000000000000000000000000000073ffffffffffffffffffffffffffffffffffffffff1663414bf389826040518263ffffffff1660e01b81526004016105559190611ad7565b6020604051808303816000875af1158015610574573d6000803e3d6000fd5b505050506040513d601f19601f820116820180604052508101906105989190611b08565b9650506105a4565b8095505b6105cf887f00000000000000000000000000000000000000000000000000000000000000008861121a565b7f000000000000000000000000000000000000000000000000000000000000000073ffffffffffffffffffffffffffffffffffffffff1663617ba037898833600060149054906101000a900461ffff166040518563ffffffff1660e01b815260040161063e9493929190611b52565b600060405180830381600087803b15801561065857600080fd5b505af115801561066c573d6000803e3d6000fd5b505050508773ffffffffffffffffffffffffffffffffffffffff163373ffffffffffffffffffffffffffffffffffffffff167f19e3c0de67294f56cfeacb1217558ac680cdb64f9b897b0bf99bb4dcf4a88582886040516106cd919061163d565b60405180910390a35050505b505092915050565b6106e96110d8565b60008173ffffffffffffffffffffffffffffffffffffffff166370a08231306040518263ffffffff1660e01b81526004016107249190611772565b602060405180830381865afa158015610741573d6000803e3d6000fd5b505050506040513d601f19601f820116820180604052508101906107659190611b08565b905061077282338361136f565b5050565b60008060009054906101000a900473ffffffffffffffffffffffffffffffffffffffff16905090565b6000806000339050803b91506000821415610c365760008673ffffffffffffffffffffffffffffffffffffffff1663dd62ed3e33306040518363ffffffff1660e01b81526004016107f1929190611b97565b602060405180830381865afa15801561080e573d6000803e3d6000fd5b505050506040513d601f19601f820116820180604052508101906108329190611b08565b905060008773ffffffffffffffffffffffffffffffffffffffff166370a08231336040518263ffffffff1660e01b815260040161086f9190611772565b602060405180830381865afa15801561088c573d6000803e3d6000fd5b505050506040513d601f19601f820116820180604052508101906108b09190611b08565b9050888210156108f95787896040517fdcbaa1750000000000000000000000000000000000000000000000000000000081526004016108f0929190611bc0565b60405180910390fd5b888110156109405780896040517fcf479181000000000000000000000000000000000000000000000000000000008152600401610937929190611be9565b60405180910390fd5b61094c8833308c6114c4565b606460638a61095b9190611c12565b61096591906118d1565b98508673ffffffffffffffffffffffffffffffffffffffff168873ffffffffffffffffffffffffffffffffffffffff1614610b02576109c5887f00000000000000000000000000000000000000000000000000000000000000008b61121a565b60006040518061010001604052808a73ffffffffffffffffffffffffffffffffffffffff1681526020018973ffffffffffffffffffffffffffffffffffffffff1681526020018862ffffff1681526020013073ffffffffffffffffffffffffffffffffffffffff1681526020014281526020018b815260200160008152602001600073ffffffffffffffffffffffffffffffffffffffff1681525090507f000000000000000000000000000000000000000000000000000000000000000073ffffffffffffffffffffffffffffffffffffffff1663414bf389826040518263ffffffff1660e01b8152600401610abb9190611ad7565b6020604051808303816000875af1158015610ada573d6000803e3d6000fd5b505050506040513d601f19601f82011682018060405250810190610afe9190611b08565b9550505b610b2d877f00000000000000000000000000000000000000000000000000000000000000008761121a565b7f000000000000000000000000000000000000000000000000000000000000000073ffffffffffffffffffffffffffffffffffffffff1663617ba037888733600060149054906101000a900461ffff166040518563ffffffff1660e01b8152600401610b9c9493929190611b52565b600060405180830381600087803b158015610bb657600080fd5b505af1158015610bca573d6000803e3d6000fd5b505050508673ffffffffffffffffffffffffffffffffffffffff163373ffffffffffffffffffffffffffffffffffffffff167f19e3c0de67294f56cfeacb1217558ac680cdb64f9b897b0bf99bb4dcf4a8858287604051610c2b919061163d565b60405180910390a350505b5050949350505050565b600080339050803b91506000821415610ef45760008473ffffffffffffffffffffffffffffffffffffffff1663dd62ed3e33306040518363ffffffff1660e01b8152600401610c90929190611b97565b602060405180830381865afa158015610cad573d6000803e3d6000fd5b505050506040513d601f19601f82011682018060405250810190610cd19190611b08565b905060008573ffffffffffffffffffffffffffffffffffffffff166370a08231336040518263ffffffff1660e01b8152600401610d0e9190611772565b602060405180830381865afa158015610d2b573d6000803e3d6000fd5b505050506040513d601f19601f82011682018060405250810190610d4f9190611b08565b905084821015610d985785856040517fdcbaa175000000000000000000000000000000000000000000000000000000008152600401610d8f929190611bc0565b60405180910390fd5b84811015610ddf5780856040517fcf479181000000000000000000000000000000000000000000000000000000008152600401610dd6929190611be9565b60405180910390fd5b610deb863330886114c4565b7f000000000000000000000000000000000000000000000000000000000000000073ffffffffffffffffffffffffffffffffffffffff166369328dec8887336040518463ffffffff1660e01b8152600401610e4893929190611c6c565b6020604051808303816000875af1158015610e67573d6000803e3d6000fd5b505050506040513d601f19601f82011682018060405250810190610e8b9190611b08565b508673ffffffffffffffffffffffffffffffffffffffff163373ffffffffffffffffffffffffffffffffffffffff167f19e3c0de67294f56cfeacb1217558ac680cdb64f9b897b0bf99bb4dcf4a8858287604051610ee9919061163d565b60405180910390a350505b5050505050565b610f036110d8565b6000803373ffffffffffffffffffffffffffffffffffffffff1647604051610f2a90611933565b60006040518083038185875af1925050503d8060008114610f67576040519150601f19603f3d011682016040523d82523d6000602084013e610f6c565b606091505b509150915081610fb1576040517f08c379a0000000000000000000000000000000000000000000000000000000008152600401610fa8906119a5565b60405180910390fd5b5050565b610fbd6110d8565b600073ffffffffffffffffffffffffffffffffffffffff168173ffffffffffffffffffffffffffffffffffffffff16141561102d576040517f08c379a000000000000000000000000000000000000000000000000000000000815260040161102490611d15565b60405180910390fd5b61103681611156565b50565b6000807f000000000000000000000000000000000000000000000000000000000000000073ffffffffffffffffffffffffffffffffffffffff1663feaf968c6040518163ffffffff1660e01b815260040160a060405180830381865afa1580156110a7573d6000803e3d6000fd5b505050506040513d601f19601f820116820180604052508101906110cb9190611dad565b5050509150508091505090565b6110e061161c565b73ffffffffffffffffffffffffffffffffffffffff166110fe610776565b73ffffffffffffffffffffffffffffffffffffffff1614611154576040517f08c379a000000000000000000000000000000000000000000000000000000000815260040161114b90611e74565b60405180910390fd5b565b60008060009054906101000a900473ffffffffffffffffffffffffffffffffffffffff169050816000806101000a81548173ffffffffffffffffffffffffffffffffffffffff021916908373ffffffffffffffffffffffffffffffffffffffff1602179055508173ffffffffffffffffffffffffffffffffffffffff168173ffffffffffffffffffffffffffffffffffffffff167f8be0079c531659141344cd1fd0a4f28419497f9722a3daafe3b4186f6b6457e060405160405180910390a35050565b6000808473ffffffffffffffffffffffffffffffffffffffff1663095ea7b360e01b858560405160240161124f929190611bc0565b604051602081830303815290604052907bffffffffffffffffffffffffffffffffffffffffffffffffffffffff19166020820180517bffffffffffffffffffffffffffffffffffffffffffffffffffffffff83818316178352505050506040516112b99190611f03565b6000604051808303816000865af19150503d80600081146112f6576040519150601f19603f3d011682016040523d82523d6000602084013e6112fb565b606091505b509150915081801561132957506000815114806113285750808060200190518101906113279190611f52565b5b5b611368576040517f08c379a000000000000000000000000000000000000000000000000000000000815260040161135f90611fcb565b60405180910390fd5b5050505050565b6000808473ffffffffffffffffffffffffffffffffffffffff1663a9059cbb60e01b85856040516024016113a4929190611bc0565b604051602081830303815290604052907bffffffffffffffffffffffffffffffffffffffffffffffffffffffff19166020820180517bffffffffffffffffffffffffffffffffffffffffffffffffffffffff838183161783525050505060405161140e9190611f03565b6000604051808303816000865af19150503d806000811461144b576040519150601f19603f3d011682016040523d82523d6000602084013e611450565b606091505b509150915081801561147e575060008151148061147d57508080602001905181019061147c9190611f52565b5b5b6114bd576040517f08c379a00000000000000000000000000000000000000000000000000000000081526004016114b490612037565b60405180910390fd5b5050505050565b6000808573ffffffffffffffffffffffffffffffffffffffff166323b872dd60e01b8686866040516024016114fb93929190612057565b604051602081830303815290604052907bffffffffffffffffffffffffffffffffffffffffffffffffffffffff19166020820180517bffffffffffffffffffffffffffffffffffffffffffffffffffffffff83818316178352505050506040516115659190611f03565b6000604051808303816000865af19150503d80600081146115a2576040519150601f19603f3d011682016040523d82523d6000602084013e6115a7565b606091505b50915091508180156115d557506000815114806115d45750808060200190518101906115d39190611f52565b5b5b611614576040517f08c379a000000000000000000000000000000000000000000000000000000000815260040161160b906120da565b60405180910390fd5b505050505050565b600033905090565b6000819050919050565b61163781611624565b82525050565b6000602082019050611652600083018461162e565b92915050565b600080fd5b600073ffffffffffffffffffffffffffffffffffffffff82169050919050565b60006116888261165d565b9050919050565b6116988161167d565b81146116a357600080fd5b50565b6000813590506116b58161168f565b92915050565b600062ffffff82169050919050565b6116d3816116bb565b81146116de57600080fd5b50565b6000813590506116f0816116ca565b92915050565b6000806040838503121561170d5761170c611658565b5b600061171b858286016116a6565b925050602061172c858286016116e1565b9150509250929050565b60006020828403121561174c5761174b611658565b5b600061175a848285016116a6565b91505092915050565b61176c8161167d565b82525050565b60006020820190506117876000830184611763565b92915050565b61179681611624565b81146117a157600080fd5b50565b6000813590506117b38161178d565b92915050565b600080600080608085870312156117d3576117d2611658565b5b60006117e1878288016117a4565b94505060206117f2878288016116a6565b9350506040611803878288016116a6565b9250506060611814878288016116e1565b91505092959194509250565b60008060006060848603121561183957611838611658565b5b6000611847868287016116a6565b9350506020611858868287016116a6565b9250506040611869868287016117a4565b9150509250925092565b7f4e487b7100000000000000000000000000000000000000000000000000000000600052601260045260246000fd5b7f4e487b7100000000000000000000000000000000000000000000000000000000600052601160045260246000fd5b60006118dc82611624565b91506118e783611624565b9250826118f7576118f6611873565b5b828204905092915050565b600081905092915050565b50565b600061191d600083611902565b91506119288261190d565b600082019050919050565b600061193e82611910565b9150819050919050565b600082825260208201905092915050565b7f4661696c656420746f2073656e64204574686572000000000000000000000000600082015250565b600061198f601483611948565b915061199a82611959565b602082019050919050565b600060208201905081810360008301526119be81611982565b9050919050565b60006119d082611624565b91506119db83611624565b9250828210156119ee576119ed6118a2565b5b828203905092915050565b611a028161167d565b82525050565b611a11816116bb565b82525050565b611a2081611624565b82525050565b611a2f8161165d565b82525050565b61010082016000820151611a4c60008501826119f9565b506020820151611a5f60208501826119f9565b506040820151611a726040850182611a08565b506060820151611a8560608501826119f9565b506080820151611a986080850182611a17565b5060a0820151611aab60a0850182611a17565b5060c0820151611abe60c0850182611a17565b5060e0820151611ad160e0850182611a26565b50505050565b600061010082019050611aed6000830184611a35565b92915050565b600081519050611b028161178d565b92915050565b600060208284031215611b1e57611b1d611658565b5b6000611b2c84828501611af3565b91505092915050565b600061ffff82169050919050565b611b4c81611b35565b82525050565b6000608082019050611b676000830187611763565b611b74602083018661162e565b611b816040830185611763565b611b8e6060830184611b43565b95945050505050565b6000604082019050611bac6000830185611763565b611bb96020830184611763565b9392505050565b6000604082019050611bd56000830185611763565b611be2602083018461162e565b9392505050565b6000604082019050611bfe600083018561162e565b611c0b602083018461162e565b9392505050565b6000611c1d82611624565b9150611c2883611624565b9250817fffffffffffffffffffffffffffffffffffffffffffffffffffffffffffffffff0483118215151615611c6157611c606118a2565b5b828202905092915050565b6000606082019050611c816000830186611763565b611c8e602083018561162e565b611c9b6040830184611763565b949350505050565b7f4f776e61626c653a206e6577206f776e657220697320746865207a65726f206160008201527f6464726573730000000000000000000000000000000000000000000000000000602082015250565b6000611cff602683611948565b9150611d0a82611ca3565b604082019050919050565b60006020820190508181036000830152611d2e81611cf2565b9050919050565b600069ffffffffffffffffffff82169050919050565b611d5481611d35565b8114611d5f57600080fd5b50565b600081519050611d7181611d4b565b92915050565b6000819050919050565b611d8a81611d77565b8114611d9557600080fd5b50565b600081519050611da781611d81565b92915050565b600080600080600060a08688031215611dc957611dc8611658565b5b6000611dd788828901611d62565b9550506020611de888828901611d98565b9450506040611df988828901611af3565b9350506060611e0a88828901611af3565b9250506080611e1b88828901611d62565b9150509295509295909350565b7f4f776e61626c653a2063616c6c6572206973206e6f7420746865206f776e6572600082015250565b6000611e5e602083611948565b9150611e6982611e28565b602082019050919050565b60006020820190508181036000830152611e8d81611e51565b9050919050565b600081519050919050565b60005b83811015611ebd578082015181840152602081019050611ea2565b83811115611ecc576000848401525b50505050565b6000611edd82611e94565b611ee78185611902565b9350611ef7818560208601611e9f565b80840191505092915050565b6000611f0f8284611ed2565b915081905092915050565b60008115159050919050565b611f2f81611f1a565b8114611f3a57600080fd5b50565b600081519050611f4c81611f26565b92915050565b600060208284031215611f6857611f67611658565b5b6000611f7684828501611f3d565b91505092915050565b7f5341000000000000000000000000000000000000000000000000000000000000600082015250565b6000611fb5600283611948565b9150611fc082611f7f565b602082019050919050565b60006020820190508181036000830152611fe481611fa8565b9050919050565b7f5354000000000000000000000000000000000000000000000000000000000000600082015250565b6000612021600283611948565b915061202c82611feb565b602082019050919050565b6000602082019050818103600083015261205081612014565b9050919050565b600060608201905061206c6000830186611763565b6120796020830185611763565b612086604083018461162e565b949350505050565b7f5354460000000000000000000000000000000000000000000000000000000000600082015250565b60006120c4600383611948565b91506120cf8261208e565b602082019050919050565b600060208201905081810360008301526120f3816120b7565b905091905056fea2646970667358221220887d692e6cd93e5d7d55ed1c906dd647b8bd21ef2b8b2741c823b0a877e3179264736f6c634300080a0033",
  "devdoc": {
    "kind": "dev",
    "methods": {
      "owner()": {
        "details": "Returns the address of the current owner."
      },
      "renounceOwnership()": {
        "details": "Leaves the contract without owner. It will not be possible to call `onlyOwner` functions anymore. Can only be called by the current owner. NOTE: Renouncing ownership will leave the contract without an owner, thereby removing any functionality that is only available to the owner."
      },
      "transferOwnership(address)": {
        "details": "Transfers ownership of the contract to a new account (`newOwner`). Can only be called by the current owner."
      }
    },
    "version": 1
  },
  "userdoc": {
    "kind": "user",
    "methods": {},
    "version": 1
  },
  "storageLayout": {
    "storage": [
      {
        "astId": 3231,
        "contract": "contracts/deLend.sol:deLend",
        "label": "_owner",
        "offset": 0,
        "slot": "0",
        "type": "t_address"
      },
      {
        "astId": 1769,
        "contract": "contracts/deLend.sol:deLend",
        "label": "Ref",
        "offset": 20,
        "slot": "0",
        "type": "t_uint16"
      }
    ],
    "types": {
      "t_address": {
        "encoding": "inplace",
        "label": "address",
        "numberOfBytes": "20"
      },
      "t_uint16": {
        "encoding": "inplace",
        "label": "uint16",
        "numberOfBytes": "2"
      }
    }
  }
}